{
  "contractName": "Inheritance",
  "abi": [
    {
      "inputs": [],
      "stateMutability": "nonpayable",
      "type": "constructor"
    },
    {
      "anonymous": false,
      "inputs": [
        {
          "indexed": true,
          "internalType": "address",
          "name": "previousOwner",
          "type": "address"
        },
        {
          "indexed": true,
          "internalType": "address",
          "name": "newOwner",
          "type": "address"
        }
      ],
      "name": "NewOwnerProposed",
      "type": "event"
    },
    {
      "anonymous": false,
      "inputs": [
        {
          "indexed": true,
          "internalType": "address",
          "name": "oldOwner",
          "type": "address"
        },
        {
          "indexed": true,
          "internalType": "address",
          "name": "newOwner",
          "type": "address"
        }
      ],
      "name": "OwnershipTransferred",
      "type": "event"
    },
    {
      "anonymous": false,
      "inputs": [
        {
          "indexed": false,
          "internalType": "address",
          "name": "account",
          "type": "address"
        }
      ],
      "name": "Paused",
      "type": "event"
    },
    {
      "anonymous": false,
      "inputs": [
        {
          "indexed": true,
          "internalType": "address",
          "name": "from",
          "type": "address"
        },
        {
          "indexed": true,
          "internalType": "address",
          "name": "to",
          "type": "address"
        },
        {
          "indexed": false,
          "internalType": "uint256",
          "name": "value",
          "type": "uint256"
        }
      ],
      "name": "Transfer",
      "type": "event"
    },
    {
      "anonymous": false,
      "inputs": [
        {
          "indexed": false,
          "internalType": "address",
          "name": "account",
          "type": "address"
        }
      ],
      "name": "Unpaused",
      "type": "event"
    },
    {
      "inputs": [
        {
          "internalType": "uint256",
          "name": "",
          "type": "uint256"
        }
      ],
      "name": "Oracles",
      "outputs": [
        {
          "internalType": "address",
          "name": "account",
          "type": "address"
        },
        {
          "internalType": "uint256",
          "name": "vote",
          "type": "uint256"
        },
        {
          "internalType": "string",
          "name": "signature",
          "type": "string"
        }
      ],
      "stateMutability": "view",
      "type": "function"
    },
    {
      "inputs": [],
      "name": "OraclesCount",
      "outputs": [
        {
          "internalType": "uint256",
          "name": "",
          "type": "uint256"
        }
      ],
      "stateMutability": "view",
      "type": "function"
    },
    {
      "inputs": [],
      "name": "Unlocked",
      "outputs": [
        {
          "internalType": "uint256",
          "name": "",
          "type": "uint256"
        }
      ],
      "stateMutability": "view",
      "type": "function"
    },
    {
      "inputs": [],
      "name": "acceptOwnership",
      "outputs": [],
      "stateMutability": "nonpayable",
      "type": "function"
    },
    {
      "inputs": [],
      "name": "creator",
      "outputs": [
        {
          "internalType": "address",
          "name": "",
          "type": "address"
        }
      ],
      "stateMutability": "view",
      "type": "function"
    },
    {
      "inputs": [],
      "name": "owner",
      "outputs": [
        {
          "internalType": "address",
          "name": "",
          "type": "address"
        }
      ],
      "stateMutability": "view",
      "type": "function"
    },
    {
      "inputs": [],
      "name": "pause",
      "outputs": [],
      "stateMutability": "nonpayable",
      "type": "function"
    },
    {
      "inputs": [],
      "name": "paused",
      "outputs": [
        {
          "internalType": "bool",
          "name": "",
          "type": "bool"
        }
      ],
      "stateMutability": "view",
      "type": "function"
    },
    {
      "inputs": [
        {
          "internalType": "address",
          "name": "newOwner",
          "type": "address"
        }
      ],
      "name": "proposeOwner",
      "outputs": [],
      "stateMutability": "nonpayable",
      "type": "function"
    },
    {
      "inputs": [],
      "name": "token",
      "outputs": [
        {
          "internalType": "contract ERC20",
          "name": "",
          "type": "address"
        }
      ],
      "stateMutability": "view",
      "type": "function"
    },
    {
      "inputs": [
        {
          "internalType": "address",
          "name": "newOwner",
          "type": "address"
        }
      ],
      "name": "transferOwnership",
      "outputs": [],
      "stateMutability": "nonpayable",
      "type": "function"
    },
    {
      "inputs": [],
      "name": "unpause",
      "outputs": [],
      "stateMutability": "nonpayable",
      "type": "function"
    },
    {
      "inputs": [],
      "name": "getFeeToken",
      "outputs": [
        {
          "internalType": "address",
          "name": "",
          "type": "address"
        }
      ],
      "stateMutability": "pure",
      "type": "function"
    },
    {
      "inputs": [
        {
          "internalType": "address[]",
          "name": "_oracles",
          "type": "address[]"
        }
      ],
      "name": "setOracles",
      "outputs": [],
      "stateMutability": "nonpayable",
      "type": "function"
    },
    {
      "inputs": [
        {
          "internalType": "string",
          "name": "_signature",
          "type": "string"
        }
      ],
      "name": "vote",
      "outputs": [
        {
          "internalType": "bool",
          "name": "success",
          "type": "bool"
        }
      ],
      "stateMutability": "nonpayable",
      "type": "function"
    },
    {
      "inputs": [
        {
          "internalType": "address",
          "name": "_receiver",
          "type": "address"
        },
        {
          "internalType": "uint256",
          "name": "_value",
          "type": "uint256"
        }
      ],
      "name": "lock",
      "outputs": [
        {
          "internalType": "bool",
          "name": "success",
          "type": "bool"
        }
      ],
      "stateMutability": "nonpayable",
      "type": "function"
    },
    {
      "inputs": [],
      "name": "withdraw",
      "outputs": [
        {
          "internalType": "bool",
          "name": "success",
          "type": "bool"
        }
      ],
      "stateMutability": "nonpayable",
      "type": "function"
    }
  ],
  "bytecode": "0x6080604052600060075534801561001557600080fd5b5060008060006101000a81548160ff02191690831515021790555033600060016101000a81548173ffffffffffffffffffffffffffffffffffffffff021916908373ffffffffffffffffffffffffffffffffffffffff16021790555033600160006101000a81548173ffffffffffffffffffffffffffffffffffffffff021916908373ffffffffffffffffffffffffffffffffffffffff16021790555033600660006101000a81548173ffffffffffffffffffffffffffffffffffffffff021916908373ffffffffffffffffffffffffffffffffffffffff16021790555073e6467c6ab4a911a5a6c540b311c38f888ed3c362600360006101000a81548173ffffffffffffffffffffffffffffffffffffffff021916908373ffffffffffffffffffffffffffffffffffffffff16021790555061232c806101576000396000f3fe608060405234801561001057600080fd5b506004361061010b5760003560e01c80638456cb59116100a2578063b5ed298a11610071578063b5ed298a14610260578063ca709a251461027c578063f2fde38b1461029a578063fc0c546a146102b6578063fc36e15b146102d45761010b565b80638456cb59146101fe5780638da5cb5b1461020857806396fe623514610226578063ae9b71af146102445761010b565b80633ccfd60b116100de5780633ccfd60b146101ae5780633f4ba83a146101cc5780635c975abb146101d657806379ba5097146101f45761010b565b8063014cf7dd1461011057806302d05d3f1461014257806319aad37114610160578063282d3fdf1461017e575b600080fd5b61012a600480360381019061012591906119b7565b610304565b60405161013993929190611dd9565b60405180910390f35b61014a6103d6565b6040516101579190611d87565b60405180910390f35b6101686103fc565b6040516101759190611fad565b60405180910390f35b610198600480360381019061019391906118c8565b610402565b6040516101a59190611e17565b60405180910390f35b6101b661069e565b6040516101c39190611e17565b60405180910390f35b6101d4610a13565b005b6101de610afd565b6040516101eb9190611e17565b60405180910390f35b6101fc610b13565b005b610206610ce8565b005b610210610dd2565b60405161021d9190611d87565b60405180910390f35b61022e610dfc565b60405161023b9190611fad565b60405180910390f35b61025e60048036038101906102599190611904565b610e02565b005b61027a6004803603810190610275919061189f565b61106c565b005b61028461122c565b6040516102919190611d87565b60405180910390f35b6102b460048036038101906102af919061189f565b611248565b005b6102be611408565b6040516102cb9190611e32565b60405180910390f35b6102ee60048036038101906102e99190611972565b61142e565b6040516102fb9190611e17565b60405180910390f35b60046020528060005260406000206000915090508060000160009054906101000a900473ffffffffffffffffffffffffffffffffffffffff169080600101549080600201805461035390612198565b80601f016020809104026020016040519081016040528092919081815260200182805461037f90612198565b80156103cc5780601f106103a1576101008083540402835291602001916103cc565b820191906000526020600020905b8154815290600101906020018083116103af57829003601f168201915b5050505050905083565b600660009054906101000a900473ffffffffffffffffffffffffffffffffffffffff1681565b60075481565b6000600160009054906101000a900473ffffffffffffffffffffffffffffffffffffffff1673ffffffffffffffffffffffffffffffffffffffff163373ffffffffffffffffffffffffffffffffffffffff1614610494576040517f08c379a000000000000000000000000000000000000000000000000000000000815260040161048b90611f6d565b60405180910390fd5b60008054906101000a900460ff16156104e2576040517f08c379a00000000000000000000000000000000000000000000000000000000081526004016104d990611eed565b60405180910390fd5b600360009054906101000a900473ffffffffffffffffffffffffffffffffffffffff1673ffffffffffffffffffffffffffffffffffffffff166323b872dd3330856040518463ffffffff1660e01b815260040161054193929190611da2565b602060405180830381600087803b15801561055b57600080fd5b505af115801561056f573d6000803e3d6000fd5b505050506040513d601f19601f820116820180604052508101906105939190611949565b506105e982600860008673ffffffffffffffffffffffffffffffffffffffff1673ffffffffffffffffffffffffffffffffffffffff168152602001908152602001600020600001546115e990919063ffffffff16565b600860008573ffffffffffffffffffffffffffffffffffffffff1673ffffffffffffffffffffffffffffffffffffffff168152602001908152602001600020600001819055503073ffffffffffffffffffffffffffffffffffffffff163373ffffffffffffffffffffffffffffffffffffffff167fddf252ad1be2c89b69c2b068fc378daa952ba7f163c4a11628f55a4df523b3ef8460405161068c9190611fad565b60405180910390a36001905092915050565b60008060009054906101000a900460ff16156106ef576040517f08c379a00000000000000000000000000000000000000000000000000000000081526004016106e690611eed565b60405180910390fd5b600060075411610734576040517f08c379a000000000000000000000000000000000000000000000000000000000815260040161072b90611f0d565b60405180910390fd5b6000600860003373ffffffffffffffffffffffffffffffffffffffff1673ffffffffffffffffffffffffffffffffffffffff168152602001908152602001600020600001549050600081116107be576040517f08c379a00000000000000000000000000000000000000000000000000000000081526004016107b590611f2d565b60405180910390fd5b61081381600860003373ffffffffffffffffffffffffffffffffffffffff1673ffffffffffffffffffffffffffffffffffffffff1681526020019081526020016000206000015461164290919063ffffffff16565b600860003373ffffffffffffffffffffffffffffffffffffffff1673ffffffffffffffffffffffffffffffffffffffff16815260200190815260200160002060000181905550600360009054906101000a900473ffffffffffffffffffffffffffffffffffffffff1673ffffffffffffffffffffffffffffffffffffffff166323b872dd3033846040518463ffffffff1660e01b81526004016108b893929190611da2565b602060405180830381600087803b1580156108d257600080fd5b505af11580156108e6573d6000803e3d6000fd5b505050506040513d601f19601f8201168201806040525081019061090a9190611949565b5061096081600860003373ffffffffffffffffffffffffffffffffffffffff1673ffffffffffffffffffffffffffffffffffffffff168152602001908152602001600020600001546115e990919063ffffffff16565b600860003373ffffffffffffffffffffffffffffffffffffffff1673ffffffffffffffffffffffffffffffffffffffff168152602001908152602001600020600101819055503373ffffffffffffffffffffffffffffffffffffffff163073ffffffffffffffffffffffffffffffffffffffff167fddf252ad1be2c89b69c2b068fc378daa952ba7f163c4a11628f55a4df523b3ef83604051610a039190611fad565b60405180910390a3600191505090565b600060019054906101000a900473ffffffffffffffffffffffffffffffffffffffff1673ffffffffffffffffffffffffffffffffffffffff163373ffffffffffffffffffffffffffffffffffffffff1614610aa3576040517f08c379a0000000000000000000000000000000000000000000000000000000008152600401610a9a90611f8d565b60405180910390fd5b60008060006101000a81548160ff0219169083151502179055507f5db9ee0a495bf2e6ff9c91a7834c1ba4fdd244a5e8aa4e537bd38aeae4b073aa610ae661169b565b604051610af39190611d87565b60405180910390a1565b60008060009054906101000a900460ff16905090565b600260009054906101000a900473ffffffffffffffffffffffffffffffffffffffff1673ffffffffffffffffffffffffffffffffffffffff163373ffffffffffffffffffffffffffffffffffffffff1614610ba3576040517f08c379a0000000000000000000000000000000000000000000000000000000008152600401610b9a90611ead565b60405180910390fd5b600260009054906101000a900473ffffffffffffffffffffffffffffffffffffffff1673ffffffffffffffffffffffffffffffffffffffff16600160009054906101000a900473ffffffffffffffffffffffffffffffffffffffff1673ffffffffffffffffffffffffffffffffffffffff167f8be0079c531659141344cd1fd0a4f28419497f9722a3daafe3b4186f6b6457e060405160405180910390a3600260009054906101000a900473ffffffffffffffffffffffffffffffffffffffff16600160006101000a81548173ffffffffffffffffffffffffffffffffffffffff021916908373ffffffffffffffffffffffffffffffffffffffff1602179055506000600260006101000a81548173ffffffffffffffffffffffffffffffffffffffff021916908373ffffffffffffffffffffffffffffffffffffffff160217905550565b600060019054906101000a900473ffffffffffffffffffffffffffffffffffffffff1673ffffffffffffffffffffffffffffffffffffffff163373ffffffffffffffffffffffffffffffffffffffff1614610d78576040517f08c379a0000000000000000000000000000000000000000000000000000000008152600401610d6f90611f8d565b60405180910390fd5b60016000806101000a81548160ff0219169083151502179055507f62e78cea01bee320cd4e420270b5ea74000d11b0c9f74754ebdbfc544b05a258610dbb61169b565b604051610dc89190611d87565b60405180910390a1565b6000600160009054906101000a900473ffffffffffffffffffffffffffffffffffffffff16905090565b60055481565b600160009054906101000a900473ffffffffffffffffffffffffffffffffffffffff1673ffffffffffffffffffffffffffffffffffffffff163373ffffffffffffffffffffffffffffffffffffffff1614610e92576040517f08c379a0000000000000000000000000000000000000000000000000000000008152600401610e8990611f6d565b60405180910390fd5b600660009054906101000a900473ffffffffffffffffffffffffffffffffffffffff1673ffffffffffffffffffffffffffffffffffffffff163373ffffffffffffffffffffffffffffffffffffffff1614610f22576040517f08c379a0000000000000000000000000000000000000000000000000000000008152600401610f1990611f4d565b60405180910390fd5b60006007819055508181905060058190555060005b82829050811015611067576040518060600160405280848484818110610f86577f4e487b7100000000000000000000000000000000000000000000000000000000600052603260045260246000fd5b9050602002016020810190610f9b919061189f565b73ffffffffffffffffffffffffffffffffffffffff16815260200160018152602001604051806020016040528060008152508152506004600083815260200190815260200160002060008201518160000160006101000a81548173ffffffffffffffffffffffffffffffffffffffff021916908373ffffffffffffffffffffffffffffffffffffffff1602179055506020820151816001015560408201518160020190805190602001906110509291906116a3565b50905050808061105f906121ca565b915050610f37565b505050565b600160009054906101000a900473ffffffffffffffffffffffffffffffffffffffff1673ffffffffffffffffffffffffffffffffffffffff163373ffffffffffffffffffffffffffffffffffffffff16146110fc576040517f08c379a00000000000000000000000000000000000000000000000000000000081526004016110f390611f6d565b60405180910390fd5b600073ffffffffffffffffffffffffffffffffffffffff168173ffffffffffffffffffffffffffffffffffffffff16141561116c576040517f08c379a000000000000000000000000000000000000000000000000000000000815260040161116390611e4d565b60405180910390fd5b8073ffffffffffffffffffffffffffffffffffffffff16600160009054906101000a900473ffffffffffffffffffffffffffffffffffffffff1673ffffffffffffffffffffffffffffffffffffffff167f331440cf4fb62d167f4b2040f3fb69db7bd23772dee471b39826c42f02f2c70860405160405180910390a380600260006101000a81548173ffffffffffffffffffffffffffffffffffffffff021916908373ffffffffffffffffffffffffffffffffffffffff16021790555050565b600073e6467c6ab4a911a5a6c540b311c38f888ed3c362905090565b600160009054906101000a900473ffffffffffffffffffffffffffffffffffffffff1673ffffffffffffffffffffffffffffffffffffffff163373ffffffffffffffffffffffffffffffffffffffff16146112d8576040517f08c379a00000000000000000000000000000000000000000000000000000000081526004016112cf90611f6d565b60405180910390fd5b600073ffffffffffffffffffffffffffffffffffffffff168173ffffffffffffffffffffffffffffffffffffffff161415611348576040517f08c379a000000000000000000000000000000000000000000000000000000000815260040161133f90611e4d565b60405180910390fd5b8073ffffffffffffffffffffffffffffffffffffffff16600160009054906101000a900473ffffffffffffffffffffffffffffffffffffffff1673ffffffffffffffffffffffffffffffffffffffff167f331440cf4fb62d167f4b2040f3fb69db7bd23772dee471b39826c42f02f2c70860405160405180910390a380600260006101000a81548173ffffffffffffffffffffffffffffffffffffffff021916908373ffffffffffffffffffffffffffffffffffffffff16021790555050565b600360009054906101000a900473ffffffffffffffffffffffffffffffffffffffff1681565b60008060009054906101000a900460ff161561147f576040517f08c379a000000000000000000000000000000000000000000000000000000000815260040161147690611eed565b60405180910390fd5b60008060005b600554811015611572573373ffffffffffffffffffffffffffffffffffffffff166004600083815260200190815260200160002060000160009054906101000a900473ffffffffffffffffffffffffffffffffffffffff1673ffffffffffffffffffffffffffffffffffffffff16141561152457858560046000848152602001908152602001600020600201919061151e929190611729565b50600191505b600060046000838152602001908152602001600020600201805461154790612198565b9050111561155f5760018361155c9190611fe4565b92505b808061156a906121ca565b915050611485565b50806115b3576040517f08c379a00000000000000000000000000000000000000000000000000000000081526004016115aa90611ecd565b60405180910390fd5b600360055460026115c4919061206b565b6115ce919061203a565b82106115dd5760016007819055505b60019250505092915050565b600081836115f79190611fe4565b90508281101561163c576040517f08c379a000000000000000000000000000000000000000000000000000000000815260040161163390611e6d565b60405180910390fd5b92915050565b600082821115611687576040517f08c379a000000000000000000000000000000000000000000000000000000000815260040161167e90611e8d565b60405180910390fd5b818361169391906120c5565b905092915050565b600033905090565b8280546116af90612198565b90600052602060002090601f0160209004810192826116d15760008555611718565b82601f106116ea57805160ff1916838001178555611718565b82800160010185558215611718579182015b828111156117175782518255916020019190600101906116fc565b5b50905061172591906117af565b5090565b82805461173590612198565b90600052602060002090601f016020900481019282611757576000855561179e565b82601f1061177057803560ff191683800117855561179e565b8280016001018555821561179e579182015b8281111561179d578235825591602001919060010190611782565b5b5090506117ab91906117af565b5090565b5b808211156117c85760008160009055506001016117b0565b5090565b6000813590506117db816122b1565b92915050565b60008083601f8401126117f357600080fd5b8235905067ffffffffffffffff81111561180c57600080fd5b60208301915083602082028301111561182457600080fd5b9250929050565b60008151905061183a816122c8565b92915050565b60008083601f84011261185257600080fd5b8235905067ffffffffffffffff81111561186b57600080fd5b60208301915083600182028301111561188357600080fd5b9250929050565b600081359050611899816122df565b92915050565b6000602082840312156118b157600080fd5b60006118bf848285016117cc565b91505092915050565b600080604083850312156118db57600080fd5b60006118e9858286016117cc565b92505060206118fa8582860161188a565b9150509250929050565b6000806020838503121561191757600080fd5b600083013567ffffffffffffffff81111561193157600080fd5b61193d858286016117e1565b92509250509250929050565b60006020828403121561195b57600080fd5b60006119698482850161182b565b91505092915050565b6000806020838503121561198557600080fd5b600083013567ffffffffffffffff81111561199f57600080fd5b6119ab85828601611840565b92509250509250929050565b6000602082840312156119c957600080fd5b60006119d78482850161188a565b91505092915050565b6119e9816120f9565b82525050565b6119f88161210b565b82525050565b611a0781612141565b82525050565b6000611a1882611fc8565b611a228185611fd3565b9350611a32818560208601612165565b611a3b816122a0565b840191505092915050565b6000611a53602683611fd3565b91507f4f776e61626c653a206e6577206f776e657220697320746865207a65726f206160008301527f64647265737300000000000000000000000000000000000000000000000000006020830152604082019050919050565b6000611ab9601b83611fd3565b91507f536166654d6174683a206164646974696f6e206f766572666c6f7700000000006000830152602082019050919050565b6000611af9601e83611fd3565b91507f536166654d6174683a207375627472616374696f6e206f766572666c6f7700006000830152602082019050919050565b6000611b39602483611fd3565b91507f4f776e61626c653a2063616c6c6572206973206e6f742074686520737563636560008301527f73736f72000000000000000000000000000000000000000000000000000000006020830152604082019050919050565b6000611b9f601383611fd3565b91507f4e6f7420616c6c6f77656420746f20766f7465000000000000000000000000006000830152602082019050919050565b6000611bdf601083611fd3565b91507f5061757361626c653a20706175736564000000000000000000000000000000006000830152602082019050919050565b6000611c1f601583611fd3565b91507f49742773206e6f74207468652074696d652079657400000000000000000000006000830152602082019050919050565b6000611c5f600f83611fd3565b91507f4e6f206c6f636b65642076616c756500000000000000000000000000000000006000830152602082019050919050565b6000611c9f600e83611fd3565b91507f6e6f7420617574686f72697a65640000000000000000000000000000000000006000830152602082019050919050565b6000611cdf602083611fd3565b91507f4f776e61626c653a2063616c6c6572206973206e6f7420746865206f776e65726000830152602082019050919050565b6000611d1f602283611fd3565b91507f5061757361626c653a2063616c6c6572206973206e6f7420746865207061757360008301527f65720000000000000000000000000000000000000000000000000000000000006020830152604082019050919050565b611d8181612137565b82525050565b6000602082019050611d9c60008301846119e0565b92915050565b6000606082019050611db760008301866119e0565b611dc460208301856119e0565b611dd16040830184611d78565b949350505050565b6000606082019050611dee60008301866119e0565b611dfb6020830185611d78565b8181036040830152611e0d8184611a0d565b9050949350505050565b6000602082019050611e2c60008301846119ef565b92915050565b6000602082019050611e4760008301846119fe565b92915050565b60006020820190508181036000830152611e6681611a46565b9050919050565b60006020820190508181036000830152611e8681611aac565b9050919050565b60006020820190508181036000830152611ea681611aec565b9050919050565b60006020820190508181036000830152611ec681611b2c565b9050919050565b60006020820190508181036000830152611ee681611b92565b9050919050565b60006020820190508181036000830152611f0681611bd2565b9050919050565b60006020820190508181036000830152611f2681611c12565b9050919050565b60006020820190508181036000830152611f4681611c52565b9050919050565b60006020820190508181036000830152611f6681611c92565b9050919050565b60006020820190508181036000830152611f8681611cd2565b9050919050565b60006020820190508181036000830152611fa681611d12565b9050919050565b6000602082019050611fc26000830184611d78565b92915050565b600081519050919050565b600082825260208201905092915050565b6000611fef82612137565b9150611ffa83612137565b9250827fffffffffffffffffffffffffffffffffffffffffffffffffffffffffffffffff0382111561202f5761202e612213565b5b828201905092915050565b600061204582612137565b915061205083612137565b9250826120605761205f612242565b5b828204905092915050565b600061207682612137565b915061208183612137565b9250817fffffffffffffffffffffffffffffffffffffffffffffffffffffffffffffffff04831182151516156120ba576120b9612213565b5b828202905092915050565b60006120d082612137565b91506120db83612137565b9250828210156120ee576120ed612213565b5b828203905092915050565b600061210482612117565b9050919050565b60008115159050919050565b600073ffffffffffffffffffffffffffffffffffffffff82169050919050565b6000819050919050565b600061214c82612153565b9050919050565b600061215e82612117565b9050919050565b60005b83811015612183578082015181840152602081019050612168565b83811115612192576000848401525b50505050565b600060028204905060018216806121b057607f821691505b602082108114156121c4576121c3612271565b5b50919050565b60006121d582612137565b91507fffffffffffffffffffffffffffffffffffffffffffffffffffffffffffffffff82141561220857612207612213565b5b600182019050919050565b7f4e487b7100000000000000000000000000000000000000000000000000000000600052601160045260246000fd5b7f4e487b7100000000000000000000000000000000000000000000000000000000600052601260045260246000fd5b7f4e487b7100000000000000000000000000000000000000000000000000000000600052602260045260246000fd5b6000601f19601f8301169050919050565b6122ba816120f9565b81146122c557600080fd5b50565b6122d18161210b565b81146122dc57600080fd5b50565b6122e881612137565b81146122f357600080fd5b5056fea2646970667358221220764d3ff9b989d21fbf2ccc842210bd72fae1e44776cafd2e43e29ec47486386864736f6c63430008000033",
  "immutableReferences": {},
  "source": "// SPDX-License-Identifier: MIT\r\npragma solidity ^0.8.0;\r\n\r\nimport \"./SafeMath.sol\";\r\nimport \"./ERC20.sol\";\r\nimport \"./Pausable.sol\";\r\nimport \"./Ownable.sol\";\r\n\r\ncontract Inheritance is Pausable, Ownable {\r\n\r\n    using SafeMath for uint256;\r\n\r\n    address constant TOKEN = 0xE6467C6AB4A911a5A6C540b311C38f888Ed3C362;\r\n\r\n    ERC20 public token;\r\n\r\n    struct Oracle {\r\n        address account;\r\n        uint256 vote;\r\n        string signature;\r\n    }\r\n\r\n    mapping(uint => Oracle) public Oracles;\r\n\r\n    uint256 public OraclesCount;\r\n\r\n    address public creator;\r\n\r\n    uint256 public Unlocked = 0;\r\n\r\n    event Transfer(address indexed from, address indexed to, uint256 value);\r\n\r\n    struct Account {\r\n        uint256 locked;\r\n        uint256 paid;\r\n    }\r\n\r\n    mapping(address => Account) accounts;\r\n\r\n    constructor() {\r\n        creator = msg.sender;\r\n        token = ERC20(TOKEN);\r\n    }\r\n\r\n// function getFeeToken() public pure returns (address) {\r\n//     return TOKEN;\r\n// }\r\n    function getFeeToken() public pure returns (address) {\r\n        return TOKEN;\r\n    }\r\n\r\n    function setOracles(address[] calldata _oracles) public onlyOwner {\r\n        require(msg.sender == creator, \"not authorized\");\r\n\r\n        Unlocked = 0;\r\n        OraclesCount = _oracles.length;\r\n\r\n        for (uint256 i = 0; i < _oracles.length; i++){\r\n            Oracles[i] = Oracle(_oracles[i], 1, \"\");\r\n        }\r\n    }\r\n\r\n    function vote(string calldata _signature) whenNotPaused public returns (bool success) {\r\n        uint256 v = 0;\r\n        bool found = false;\r\n        for (uint256 i = 0; i < OraclesCount; i++){\r\n            if (Oracles[i].account == msg.sender) {\r\n                Oracles[i].signature = _signature;\r\n                found = true;\r\n            }\r\n            if (bytes(Oracles[i].signature).length > 0) {\r\n                v = v + 1;\r\n            }\r\n        }\r\n        require(found, \"Not allowed to vote\");\r\n        if (v >= 2 * OraclesCount / 3) {\r\n            Unlocked = 1;\r\n        }\r\n\r\n        return true;\r\n    }\r\n\r\n    function lock(address _receiver, uint256 _value) onlyOwner whenNotPaused public returns (bool success) {\r\n        token.transferFrom(msg.sender, address(this), _value);\r\n\r\n        accounts[_receiver].locked = accounts[_receiver].locked.add(_value);\r\n\r\n        emit Transfer(msg.sender, address(this), _value);\r\n        return true;\r\n    }\r\n\r\n    function withdraw() whenNotPaused public returns (bool success) {\r\n        require(Unlocked > 0, \"It's not the time yet\");\r\n\r\n        uint256 amount = accounts[msg.sender].locked;\r\n        require(amount > 0, \"No locked value\");\r\n\r\n        accounts[msg.sender].locked = accounts[msg.sender].locked.sub(amount);\r\n        token.transferFrom(address(this), msg.sender, amount);\r\n        accounts[msg.sender].paid = accounts[msg.sender].locked.add(amount);\r\n\r\n        emit Transfer(address(this), msg.sender, amount);\r\n        return true;\r\n    }\r\n}\r\n",
  "sourcePath": "D:\\FY_PROJECT\\WillInheritance\\inheritable\\contracts\\Inheritance.sol",
  "compiler": {
    "name": "solc",
    "version": "0.8.0+commit.c7dfd78e.Emscripten.clang"
  },
  "schemaVersion": "3.4.16",
  "updatedAt": "2024-04-19T11:07:33.286Z",
  "devdoc": {
    "kind": "dev",
    "methods": {},
    "version": 1
  },
  "userdoc": {
    "kind": "user",
    "methods": {},
    "version": 1
  }
}