{
  "contractName": "WeaveHash",
  "abi": [
    {
      "inputs": [],
      "stateMutability": "nonpayable",
      "type": "constructor"
    },
    {
      "anonymous": false,
      "inputs": [
        {
          "indexed": true,
          "internalType": "address",
          "name": "sender",
          "type": "address"
        },
        {
          "indexed": false,
          "internalType": "uint256",
          "name": "id",
          "type": "uint256"
        },
        {
          "indexed": false,
          "internalType": "string",
          "name": "hash",
          "type": "string"
        },
        {
          "indexed": false,
          "internalType": "string",
          "name": "metadata",
          "type": "string"
        }
      ],
      "name": "NewHash",
      "type": "event"
    },
    {
      "anonymous": false,
      "inputs": [
        {
          "indexed": true,
          "internalType": "address",
          "name": "oldOwner",
          "type": "address"
        },
        {
          "indexed": true,
          "internalType": "address",
          "name": "newOwner",
          "type": "address"
        }
      ],
      "name": "OwnershipTransferred",
      "type": "event"
    },
    {
      "inputs": [],
      "name": "Count",
      "outputs": [
        {
          "internalType": "uint256",
          "name": "",
          "type": "uint256"
        }
      ],
      "stateMutability": "view",
      "type": "function"
    },
    {
      "inputs": [],
      "name": "creator",
      "outputs": [
        {
          "internalType": "address",
          "name": "",
          "type": "address"
        }
      ],
      "stateMutability": "view",
      "type": "function"
    },
    {
      "inputs": [
        {
          "internalType": "uint256",
          "name": "",
          "type": "uint256"
        }
      ],
      "name": "hashes",
      "outputs": [
        {
          "internalType": "uint256",
          "name": "id",
          "type": "uint256"
        },
        {
          "internalType": "string",
          "name": "hash",
          "type": "string"
        },
        {
          "internalType": "string",
          "name": "metadata",
          "type": "string"
        }
      ],
      "stateMutability": "view",
      "type": "function"
    },
    {
      "inputs": [],
      "name": "owner",
      "outputs": [
        {
          "internalType": "address",
          "name": "",
          "type": "address"
        }
      ],
      "stateMutability": "view",
      "type": "function"
    },
    {
      "inputs": [
        {
          "internalType": "address",
          "name": "newOwner",
          "type": "address"
        }
      ],
      "name": "transferOwnership",
      "outputs": [],
      "stateMutability": "nonpayable",
      "type": "function"
    },
    {
      "inputs": [
        {
          "internalType": "uint256",
          "name": "id",
          "type": "uint256"
        },
        {
          "internalType": "string",
          "name": "hash",
          "type": "string"
        },
        {
          "internalType": "string",
          "name": "metadata",
          "type": "string"
        }
      ],
      "name": "storeHash",
      "outputs": [],
      "stateMutability": "nonpayable",
      "type": "function"
    },
    {
      "inputs": [
        {
          "internalType": "uint256",
          "name": "id",
          "type": "uint256"
        }
      ],
      "name": "readHash",
      "outputs": [
        {
          "components": [
            {
              "internalType": "uint256",
              "name": "id",
              "type": "uint256"
            },
            {
              "internalType": "string",
              "name": "hash",
              "type": "string"
            },
            {
              "internalType": "string",
              "name": "metadata",
              "type": "string"
            }
          ],
          "internalType": "struct WeaveHash.DataHash",
          "name": "",
          "type": "tuple"
        }
      ],
      "stateMutability": "view",
      "type": "function"
    },
    {
      "inputs": [],
      "name": "readHashes",
      "outputs": [
        {
          "internalType": "string[]",
          "name": "",
          "type": "string[]"
        }
      ],
      "stateMutability": "view",
      "type": "function"
    },
    {
      "inputs": [],
      "name": "resetHashes",
      "outputs": [],
      "stateMutability": "nonpayable",
      "type": "function"
    }
  ],
  "bytecode": "0x6080604052600060025534801561001557600080fd5b50336000806101000a81548173ffffffffffffffffffffffffffffffffffffffff021916908373ffffffffffffffffffffffffffffffffffffffff16021790555033600160006101000a81548173ffffffffffffffffffffffffffffffffffffffff021916908373ffffffffffffffffffffffffffffffffffffffff160217905550611425806100a66000396000f3fe608060405234801561001057600080fd5b50600436106100935760003560e01c8063501895ae11610066578063501895ae1461010c57806352a4ca791461013e5780638da5cb5b1461015c57806393a8333e1461017a578063f2fde38b1461019857610093565b806302d05d3f146100985780631b314339146100b65780633b4c5a50146100e65780633dc9dfe614610102575b600080fd5b6100a06101b4565b6040516100ad9190610fd0565b60405180910390f35b6100d060048036038101906100cb9190610c69565b6101da565b6040516100dd91906110ad565b60405180910390f35b61010060048036038101906100fb9190610c92565b61038f565b005b61010a6104fb565b005b61012660048036038101906101219190610c69565b6105f5565b604051610135939291906110ea565b60405180910390f35b61014661072f565b6040516101539190610feb565b60405180910390f35b6101646108c5565b6040516101719190610fd0565b60405180910390f35b6101826108e9565b60405161018f91906110cf565b60405180910390f35b6101b260048036038101906101ad9190610c40565b6108ef565b005b600160009054906101000a900473ffffffffffffffffffffffffffffffffffffffff1681565b6101e2610aaa565b60006003600084815260200190815260200160002060000154141561023c576040517f08c379a00000000000000000000000000000000000000000000000000000000081526004016102339061106d565b60405180910390fd5b6003600083815260200190815260200160002060405180606001604052908160008201548152602001600182018054610274906112a8565b80601f01602080910402602001604051908101604052809291908181526020018280546102a0906112a8565b80156102ed5780601f106102c2576101008083540402835291602001916102ed565b820191906000526020600020905b8154815290600101906020018083116102d057829003601f168201915b50505050508152602001600282018054610306906112a8565b80601f0160208091040260200160405190810160405280929190818152602001828054610332906112a8565b801561037f5780601f106103545761010080835404028352916020019161037f565b820191906000526020600020905b81548152906001019060200180831161036257829003601f168201915b5050505050815250509050919050565b60008251116103d3576040517f08c379a00000000000000000000000000000000000000000000000000000000081526004016103ca9061108d565b60405180910390fd5b6000815111610417576040517f08c379a000000000000000000000000000000000000000000000000000000000815260040161040e9061100d565b60405180910390fd5b6040518060600160405280848152602001838152602001828152506003600085815260200190815260200160002060008201518160000155602082015181600101908051906020019061046b929190610acb565b506040820151816002019080519060200190610488929190610acb565b509050506002600081548092919061049f906112da565b91905055503373ffffffffffffffffffffffffffffffffffffffff167ff4cd95ddca6e386225c964af1b2620dc6ebe75da4ad92785708895765dbd1fc78484846040516104ee939291906110ea565b60405180910390a2505050565b60008054906101000a900473ffffffffffffffffffffffffffffffffffffffff1673ffffffffffffffffffffffffffffffffffffffff163373ffffffffffffffffffffffffffffffffffffffff1614610589576040517f08c379a00000000000000000000000000000000000000000000000000000000081526004016105809061102d565b60405180910390fd5b6000600190505b60025481116105ea57600360008281526020019081526020016000206000808201600090556001820160006105c59190610b51565b6002820160006105d59190610b51565b505080806105e2906112da565b915050610590565b506000600281905550565b600360205280600052604060002060009150905080600001549080600101805461061e906112a8565b80601f016020809104026020016040519081016040528092919081815260200182805461064a906112a8565b80156106975780601f1061066c57610100808354040283529160200191610697565b820191906000526020600020905b81548152906001019060200180831161067a57829003601f168201915b5050505050908060020180546106ac906112a8565b80601f01602080910402602001604051908101604052809291908181526020018280546106d8906112a8565b80156107255780601f106106fa57610100808354040283529160200191610725565b820191906000526020600020905b81548152906001019060200180831161070857829003601f168201915b5050505050905083565b6060600060025467ffffffffffffffff811115610775577f4e487b7100000000000000000000000000000000000000000000000000000000600052604160045260246000fd5b6040519080825280602002602001820160405280156107a857816020015b60608152602001906001900390816107935790505b5090506000600190505b60025481116108bd576003600082815260200190815260200160002060010180546107dc906112a8565b80601f0160208091040260200160405190810160405280929190818152602001828054610808906112a8565b80156108555780601f1061082a57610100808354040283529160200191610855565b820191906000526020600020905b81548152906001019060200180831161083857829003601f168201915b50505050508260018361086891906111f6565b8151811061089f577f4e487b7100000000000000000000000000000000000000000000000000000000600052603260045260246000fd5b602002602001018190525080806108b5906112da565b9150506107b2565b508091505090565b60008054906101000a900473ffffffffffffffffffffffffffffffffffffffff1681565b60025481565b60008054906101000a900473ffffffffffffffffffffffffffffffffffffffff1673ffffffffffffffffffffffffffffffffffffffff163373ffffffffffffffffffffffffffffffffffffffff161461097d576040517f08c379a00000000000000000000000000000000000000000000000000000000081526004016109749061102d565b60405180910390fd5b600073ffffffffffffffffffffffffffffffffffffffff168173ffffffffffffffffffffffffffffffffffffffff1614156109ed576040517f08c379a00000000000000000000000000000000000000000000000000000000081526004016109e49061104d565b60405180910390fd5b8073ffffffffffffffffffffffffffffffffffffffff1660008054906101000a900473ffffffffffffffffffffffffffffffffffffffff1673ffffffffffffffffffffffffffffffffffffffff167f8be0079c531659141344cd1fd0a4f28419497f9722a3daafe3b4186f6b6457e060405160405180910390a3806000806101000a81548173ffffffffffffffffffffffffffffffffffffffff021916908373ffffffffffffffffffffffffffffffffffffffff16021790555050565b60405180606001604052806000815260200160608152602001606081525090565b828054610ad7906112a8565b90600052602060002090601f016020900481019282610af95760008555610b40565b82601f10610b1257805160ff1916838001178555610b40565b82800160010185558215610b40579182015b82811115610b3f578251825591602001919060010190610b24565b5b509050610b4d9190610b91565b5090565b508054610b5d906112a8565b6000825580601f10610b6f5750610b8e565b601f016020900490600052602060002090810190610b8d9190610b91565b5b50565b5b80821115610baa576000816000905550600101610b92565b5090565b6000610bc1610bbc84611160565b61112f565b905082815260208101848484011115610bd957600080fd5b610be4848285611266565b509392505050565b600081359050610bfb816113c1565b92915050565b600082601f830112610c1257600080fd5b8135610c22848260208601610bae565b91505092915050565b600081359050610c3a816113d8565b92915050565b600060208284031215610c5257600080fd5b6000610c6084828501610bec565b91505092915050565b600060208284031215610c7b57600080fd5b6000610c8984828501610c2b565b91505092915050565b600080600060608486031215610ca757600080fd5b6000610cb586828701610c2b565b935050602084013567ffffffffffffffff811115610cd257600080fd5b610cde86828701610c01565b925050604084013567ffffffffffffffff811115610cfb57600080fd5b610d0786828701610c01565b9150509250925092565b6000610d1d8383610da9565b905092915050565b610d2e8161122a565b82525050565b6000610d3f826111a0565b610d4981856111c3565b935083602082028501610d5b85611190565b8060005b85811015610d975784840389528151610d788582610d11565b9450610d83836111b6565b925060208a01995050600181019050610d5f565b50829750879550505050505092915050565b6000610db4826111ab565b610dbe81856111d4565b9350610dce818560208601611275565b610dd7816113b0565b840191505092915050565b6000610ded826111ab565b610df781856111e5565b9350610e07818560208601611275565b610e10816113b0565b840191505092915050565b6000610e28600e836111e5565b91507f456d707479206d657461646174610000000000000000000000000000000000006000830152602082019050919050565b6000610e68600d836111e5565b91507f4e6f7420746865206f776e6572000000000000000000000000000000000000006000830152602082019050919050565b6000610ea86015836111e5565b91507f496e76616c6964206f776e6572206164647265737300000000000000000000006000830152602082019050919050565b6000610ee8600e836111e5565b91507f48617368206e6f7420666f756e640000000000000000000000000000000000006000830152602082019050919050565b6000610f28600a836111e5565b91507f456d7074792068617368000000000000000000000000000000000000000000006000830152602082019050919050565b6000606083016000830151610f736000860182610fb2565b5060208301518482036020860152610f8b8282610da9565b91505060408301518482036040860152610fa58282610da9565b9150508091505092915050565b610fbb8161125c565b82525050565b610fca8161125c565b82525050565b6000602082019050610fe56000830184610d25565b92915050565b600060208201905081810360008301526110058184610d34565b905092915050565b6000602082019050818103600083015261102681610e1b565b9050919050565b6000602082019050818103600083015261104681610e5b565b9050919050565b6000602082019050818103600083015261106681610e9b565b9050919050565b6000602082019050818103600083015261108681610edb565b9050919050565b600060208201905081810360008301526110a681610f1b565b9050919050565b600060208201905081810360008301526110c78184610f5b565b905092915050565b60006020820190506110e46000830184610fc1565b92915050565b60006060820190506110ff6000830186610fc1565b81810360208301526111118185610de2565b905081810360408301526111258184610de2565b9050949350505050565b6000604051905081810181811067ffffffffffffffff8211171561115657611155611381565b5b8060405250919050565b600067ffffffffffffffff82111561117b5761117a611381565b5b601f19601f8301169050602081019050919050565b6000819050602082019050919050565b600081519050919050565b600081519050919050565b6000602082019050919050565b600082825260208201905092915050565b600082825260208201905092915050565b600082825260208201905092915050565b60006112018261125c565b915061120c8361125c565b92508282101561121f5761121e611323565b5b828203905092915050565b60006112358261123c565b9050919050565b600073ffffffffffffffffffffffffffffffffffffffff82169050919050565b6000819050919050565b82818337600083830152505050565b60005b83811015611293578082015181840152602081019050611278565b838111156112a2576000848401525b50505050565b600060028204905060018216806112c057607f821691505b602082108114156112d4576112d3611352565b5b50919050565b60006112e58261125c565b91507fffffffffffffffffffffffffffffffffffffffffffffffffffffffffffffffff82141561131857611317611323565b5b600182019050919050565b7f4e487b7100000000000000000000000000000000000000000000000000000000600052601160045260246000fd5b7f4e487b7100000000000000000000000000000000000000000000000000000000600052602260045260246000fd5b7f4e487b7100000000000000000000000000000000000000000000000000000000600052604160045260246000fd5b6000601f19601f8301169050919050565b6113ca8161122a565b81146113d557600080fd5b50565b6113e18161125c565b81146113ec57600080fd5b5056fea26469706673582212200d22b325bdffb8bfdfcaad5ab7e5da29ead8feb75de5845a160e2646e59c7e0f64736f6c63430008000033",
  "immutableReferences": {},
  "source": "// SPDX-License-Identifier: MIT\r\npragma solidity ^0.8.0;\r\n\r\ncontract WeaveHash {\r\n\r\n    struct DataHash {\r\n        uint256 id;\r\n        string hash;\r\n        string metadata;\r\n    }\r\n\r\n    address public owner;\r\n    address public creator;\r\n\r\n    uint256 public Count = 0;\r\n\r\n    mapping(uint256 => DataHash) public hashes;\r\n\r\n    event NewHash(address indexed sender, uint256 id, string hash, string metadata);\r\n    event OwnershipTransferred(address indexed oldOwner, address indexed newOwner);\r\n\r\n    constructor() {\r\n        owner = msg.sender;\r\n        creator = msg.sender;\r\n    }\r\n\r\n    modifier onlyOwner() {\r\n        require(msg.sender == owner, \"Not the owner\");\r\n        _;\r\n    }\r\n\r\n    function transferOwnership(address newOwner) public onlyOwner {\r\n        require(newOwner != address(0), \"Invalid owner address\");\r\n        emit OwnershipTransferred(owner, newOwner);\r\n        owner = newOwner;\r\n    }\r\n\r\n    function storeHash(uint256 id, string memory hash, string memory metadata) public {\r\n        require(bytes(hash).length > 0, \"Empty hash\");\r\n        require(bytes(metadata).length > 0, \"Empty metadata\");\r\n\r\n        hashes[id] = DataHash(id, hash, metadata);\r\n        Count++;\r\n\r\n        emit NewHash(msg.sender, id, hash, metadata);\r\n    }\r\n\r\n    function readHash(uint256 id) public view returns (DataHash memory) {\r\n        require(hashes[id].id != 0, \"Hash not found\");\r\n        return hashes[id];\r\n    }\r\n\r\n    function readHashes() public view returns (string[] memory) {\r\n        string[] memory allHashes = new string[](Count);\r\n        for (uint256 i = 1; i <= Count; i++) {\r\n            allHashes[i - 1] = hashes[i].hash;\r\n        }\r\n        return allHashes;\r\n    }\r\n\r\n    function resetHashes() public onlyOwner {\r\n        for (uint256 i = 1; i <= Count; i++) {\r\n            delete hashes[i];\r\n        }\r\n        Count = 0;\r\n    }\r\n}\r\n",
  "sourcePath": "D:\\FY_PROJECT\\WillInheritance\\inheritable\\contracts\\WeaveHash.sol",
  "compiler": {
    "name": "solc",
    "version": "0.8.0+commit.c7dfd78e.Emscripten.clang"
  },
  "schemaVersion": "3.4.16",
  "updatedAt": "2024-04-19T11:07:33.314Z",
  "devdoc": {
    "kind": "dev",
    "methods": {},
    "version": 1
  },
  "userdoc": {
    "kind": "user",
    "methods": {},
    "version": 1
  }
}